:100000000C945E000C9486000C9486000C94860080
:100010000C9486000C9486000C9486000C94860048
:100020000C9486000C9486000C9486000C94FA03C1
:100030000C9486000C9486000C9486000C94860028
:100040000C94680A0C9486000C94290D0C946C0D89
:100050000C9486000C9486000C9486000C94860008
:100060000C943B090C94860000000007000201007C
:100070000003040600000000000000000102040864
:100080001020408001020408102001020408102002
:10009000040404040404040402020202020203032E
:1000A0000303030300000000250028002B000000CC
:1000B0000000240027002A005908280E11241FBE22
:1000C000CFEFD8E0DEBFCDBF15E0A0E0B1E0ECE0BF
:1000D000F4E202C005900D92A838B107D9F718E0F4
:1000E000A8E8B5E001C01D92A330B107E1F710E028
:1000F000CCEBD0E004C02297FE010E94C10EC83BA9
:10010000D107C9F70E94440C0C9404120C9400000F
:10011000FF920F931F93CF93DF9340E855E260E087
:1001200070E089E597E00E94A70D80E996E00E94C3
:100130001D08C6E0D1E009E811E085E0F82EE8816D
:10014000F9813097D1F086819781892BA1F0818147
:100150008F9380818F931F930F93FF920E9432079A
:10016000E881F9810680F781E02D09950F900F90C5
:100170000F900F900F902296E2CFDF91CF911F91B9
:100180000F91FF900895CF92DF92EF92FF92CF935D
:10019000DF930E94B20A6B017C01C6E0D1E0A99115
:1001A000B9911097A9F01896ED91FC911997309795
:1001B000B1F312968D919D910D90BC91A02D8C154F
:1001C0009D05AE05BF0558F7C701B6010995E7CFF4
:1001D000DF91CF91FF90EF90DF90CF90089561E095
:1001E00084E00E94AF0B68EC70E080E090E00E9439
:1001F000E10A60E084E00C94AF0B8091880591E007
:10020000980F909388058230C9F028F4882341F034
:10021000813049F008958330E1F0843091F1089500
:100220000E94EF0027C061E085E00E94AF0B0E94B2
:10023000B20A6053784F8F4F9F4F30C061E086E025
:100240000E94AF0B0E94B20A68537F4F8F4F9F4F9F
:1002500025C060E086E00E94AF0B60E085E00E9470
:10026000AF0B80910E01853028F480918805835072
:10027000809388050E94B20A6854744F8F4F9F4F35
:100280000DC081E080930E010E94EF00109288055E
:100290000E94B20A60527C468B4F9F4F60931101BF
:1002A000709312018093130190931401089561E0FB
:1002B00084E00E94760B60E084E00E94AF0B61E076
:1002C00085E00E94760B60E085E00E94AF0B61E064
:1002D00086E00E94760B60E086E00C94AF0B65EA46
:1002E00071E083E00E941A074CE16BE571E082E463
:1002F00090E00E941206811105C06BEB71E081E075
:100300000E941A0762ED71E085E00E941A076BE512
:1003100071E082E490E00E946D05811105C069EEF4
:1003200071E081E00E941A0766E172E083E00E94BA
:100330001A074CE26FE271E082E490E00E9412063C
:10034000811105C060E372E081E00E941A0762ED4E
:1003500071E083E00E941A076FE271E082E490E0AE
:100360000E946D05811105C067E472E081E00E9482
:100370001A070E94B20A6093890570938A058093D8
:100380008B0590938C050895CF9364E772E084E029
:100390000E941A078091A2051F928F938091A10558
:1003A0001F928F938091A0051F928F938EE792E00A
:1003B0009F938F93C4E0CF930E943207E7EAF5E062
:1003C00083818F9382818F9381818F9380818F939B
:1003D000E3EAF5E083818F9382818F9381818F930C
:1003E00080818F9383E992E09F938F93CF930E94B4
:1003F0003207EBEAF5E083818F9382818F938181CD
:100400008F9380818F9386EA92E09F938F93CF930F
:100410000E9432078091AF051F928F9384EB92E088
:100420009F938F93CF930E9432078DB79EB780968C
:100430000FB6F8949EBF0FBE8DBF8091B0051F927E
:100440008F9382ED92E09F938F93CF930E94320718
:100450000F900F900F900F900F90CF910895809173
:10046000B005835090918D058230C0F48091AF0526
:100470008530A0F0911105C064EE72E083E00E9427
:100480001A0781E080938D0582E1E0EAF5E0AEE8AD
:10049000B5E001900D928A95E1F70895913029F425
:1004A0006CEF72E083E00E941A0710928D050895A8
:1004B0008F929F92AF92BF92CF92DF92EF92FF9274
:1004C000CF93DF934B015C0160E173E085E00E9414
:1004D0001A0748E067E271E082E490E00E941206A9
:1004E000811105C064E273E081E00E941A0782E492
:1004F00090E00E946004EC01009709F476C08981C5
:100500008F9388818F938AE393E09F938F9385E005
:100510008F930E9432070F900F900F900F900F90C3
:10052000888199818130974061F086E593E09F93BF
:100530008F9382E08F930E9432070F900F900F905D
:1005400054C08F858093B10581FF09C08C8580934D
:10055000A0058D858093A1058E858093A205888D49
:100560008093B0058B8D8093AF056C8D7D8D8E8DC6
:100570009F8D24E6C22ED12CE12CF12CA7019601EF
:100580000E94A00E2093A7053093A8054093A905CB
:100590005093AA0568A179A18AA19BA1A701960100
:1005A0000E94A00E2093A3053093A4054093A505B7
:1005B0005093A6056CA17DA18EA19FA1A7019601D4
:1005C0000E94A00E2093AB053093AC054093AD057F
:1005D0005093AE050E942F020E94C40180E1880E54
:1005E00087E2981EA11CB11C06C028EB820E2BE0EE
:1005F000921EA11CB11C80921D0190921E01A0921E
:100600001F01B0922001DF91CF91FF90EF90DF901A
:10061000CF90BF90AF909F908F9008956FE673E05A
:1006200084E00E941A07F89410928000E1E8F0E05C
:10063000108287E391E09093890080938800808105
:1006400088608083808181608083808184608083F2
:10065000EFE6F0E080818260808361E083E00E94C9
:10066000760B61E088E00E94760B61E088E00E94F2
:10067000AF0B64E670E080E090E00E94E10A60E089
:1006800088E00E94AF0B64E670E080E090E00E949A
:10069000E10A61E088E00E94AF0BE1EBF0E08081CD
:1006A000887F8160808378941092790110927A011A
:1006B00010927B0110927C010895CF92DF92EF920D
:1006C000FF920F931F93CF93DF9300D000D000D001
:1006D000CDB7DEB76AE773E083EB95E00E94D00EFA
:1006E000E3EBF5E001900020E9F73197E35BF5409B
:1006F000A5EBB5E08FEF9FEF9D01235B35402E17F3
:100700003F07D8F42D919227092E0294202D2F70A7
:100710002927392F3025330F307E2327302D3927D5
:10072000307F3695092E000C331F96959695969539
:100730009F7193279827822FDFCF9F938F938BEC06
:1007400093E09F938F938E010F5F1F4F1F930F9323
:100750000E94070FB80183EB95E00E94C50E83EB62
:1007600095E09F938F9382ED93E09F938F9384E026
:100770008F930E943207D090B30584EBE82E85E07A
:10078000F82E0FB6F894DEBF0FBECDBFCC24C394B5
:10079000DD2009F11092B20507E010E0D0FE03C0A1
:1007A000C092B20502C01092B205D59480E197E2E2
:1007B0000E94070B86EA97E20E94070B015011097D
:1007C0000115110559F7C092B205C092B205F701A3
:1007D000D1907F01DDCF26960FB6F894DEBF0FBE15
:1007E000CDBFDF91CF911F910F91FF90EF90DF90E0
:1007F000CF9008951F920F920FB60F9211242F934E
:100800003F934F935F936F937F938F939F93AF9398
:10081000BF93EF93FF938091B205882319F06EE6A2
:1008200070E002C064E670E083E00E94E50BFF9197
:10083000EF91BF91AF919F918F917F916F915F9158
:100840004F913F912F910F900FBE0F901F901895D1
:10085000CF93DF93EC0180E996E00E948607892B15
:1008600039F440E250E0BE0180E996E00E9434088D
:1008700080E996E00E948E07DF91CF910895EF9274
:10088000FF920F931F93CF93DF938C017B0164EE54
:1008900073E082E00E941A0780912B068F5F80939D
:1008A0002B06E701209729F0C8010E942804219710
:1008B000F9CFDF91CF911F910F91FF90EF900895A5
:1008C0008F929F92AF92BF92CF92DF92EF92FF9260
:1008D0000F931F93CF93DF93EC010CE211E0912C67
:1008E00025E1C22E24E0D22E32E0832E80E996E06C
:1008F0000E948607892B59F5BE0180E996E00E9487
:100900004108E0919006F09191060190F081E02D70
:100910006DEF80E996E0099560E080E996E00E943D
:10092000430842E050E0BE0180E996E00E943408AE
:1009300080E996E00E948E07F82EE12C80E996E08F
:100940000E948E078E299F29892B09F4A5C0CE010C
:100950000E942804853B19F499249394C7CF8F3FB4
:1009600011F4912CC3CF823629F4992019F00CE2AE
:1009700016E00DC01F928F93DF92CF928F920E944C
:1009800032070F900F900F900F900F90EACFF6E084
:1009900000331F0739F0CE010E942804F80181932B
:1009A0008F01F5CF80912E0690912F068C010E5F5E
:1009B0001F4F9C012A5F3F4F25363105E8F01F93FA
:1009C0000F9380912D068F9380912C068F9381E356
:1009D00094E09F938F9382E08F930E943207B80137
:1009E000CE010E943F048DB79EB707960FB6F894CC
:1009F0009EBF0FBE8DBF4AC000E316E02CE236E07A
:100A000096E0F92EF20EF80EF01639F0CE010E94A3
:100A10002804F80181938F01F7CF80912E069091E1
:100A20002F06FC01349630E020E0ACE2B6E00197FE
:100A30008B3F4FEF940721F04D91240F320FF7CFEA
:100A4000E45DF94F80819181821302C0931709F10F
:100A50001F923F931F922F931F929F931F928F93EA
:100A600089E594E09F938F9382E08F930E943207F1
:100A700060E070E080E090E00E943F048DB79EB798
:100A80000B960FB6F8949EBF0FBE8DBF80E090E02E
:100A900017C08CE296E014C0580191E0A91AB10881
:100AA000012B31F468EF73E082E00E941A07EECF69
:100AB0006AE070E080E090E00E94E10A850116CFD4
:100AC000DF91CF911F910F91FF90EF90DF90CF902A
:100AD000BF90AF909F908F9008958F929F92AF920A
:100AE000BF92CF92DF92EF92FF920F931F93CF931B
:100AF000DF93CDB7DEB72A970FB6F894DEBF0FBEEF
:100B0000CDBF7C018B010E94B20A4B015C016DE8F4
:100B100074E085E00E941A0785EB898382E68A8368
:100B200085E08B8381E08C8382E08D831E82F801D7
:100B300082818F838381888719861A86FE01339686
:100B4000CE01099621913985230F29873A85320FE5
:100B50003A87E817F907B1F786E00E94A006D12C82
:100B60000CEB14E046E0C42E0E94B20A6819790921
:100B70008A099B09693B7B408105910538F062EA4F
:100B800074E081E00E941A0780E039C040E250E042
:100B9000B70180E996E00E94340880E996E00E945F
:100BA0008607892B09F380E996E00E948E078F3F24
:100BB000A1F3E1E0F0E0EC0FFD1FED0DF11D308140
:100BC00083131BC0D39499279F938F931F930F93E5
:100BD000CF920E945C070F900F900F900F900F9094
:100BE00029E02D15D0F686E00E949C0662EC74E0A8
:100BF00085E00E941A0781E002C0D12CCECF2A9650
:100C00000FB6F894DEBF0FBECDBFDF91CF911F911D
:100C10000F91FF90EF90DF90CF90BF90AF909F909B
:100C20008F9008959F92AF92BF92CF92DF92EF92F2
:100C3000FF920F931F93CF93DF937C018B01A42E20
:100C4000BC0180E996E00E94410886E00E94A0066F
:100C5000E801B12C0CEB14E056E0952EBA1471F1BA
:100C6000BB2089F08B2D8F7171F480E996E00E9492
:100C70005608882319F06CED74E02BC0B70180E9A9
:100C800096E00E9441086E0189911F928F931F93F5
:100C90000F939F920E945C07F601608180E996E0C5
:100CA0000E94DE070F900F900F900F900F9001970A
:100CB00019F069E075E00DC0B394D0CF86E00E94D2
:100CC0009C0680E996E00E945608882321F06EE198
:100CD00075E081E003C06DE375E085E00E941A07CE
:100CE00081E0DF91CF911F910F91FF90EF90DF9006
:100CF000CF90BF90AF909F900895BC0189E597E099
:100D00000C948F0CFF920F931F93CF93DF93F82EC9
:100D10008B01C3E8D1E0E881F981309739F08A810D
:100D20008F1510F0C80109952396F5CFDF91CF916B
:100D30001F910F91FF90089566E475E00C94820670
:100D40008F929F92AF92BF92CF92DF92EF92FF92DB
:100D50001F93CF93DF93CDB7DEB72E970FB6F894DE
:100D6000DEBF0FBECDBF182F0E94B20A4B015C013F
:100D7000E12FF0E0E05AFA4F2081822F992787FD7A
:100D800090959F932F9388EEC82E83E0D82EE12C68
:100D9000F12CC501B401A70196010E94A00E2AE022
:100DA00030E040E050E00E94A00E5F934F933F93ED
:100DB0002F93C501B40120E63AEE40E050E00E94D6
:100DC000A00EB22EA32E942E852EA70196010E946E
:100DD000A00E5F934F933F932F938F929F92AF926A
:100DE000BF9289E495E09F938F931F928EE08F933B
:100DF000CE0101967C01FF928F930E94D70EB7011E
:100E0000812F0E9482060FB6F894DEBF0FBECDBFC1
:100E10002E960FB6F894DEBF0FBECDBFDF91CF91F7
:100E20001F91FF90EF90DF90CF90BF90AF909F9079
:100E30008F9008951F93CF93DF9300D0CDB7DEB787
:100E4000182F69837A830E94A00669817A81812F95
:100E50000E948206812F0F900F90DF91CF911F91FA
:100E60000C949C06CF93DF93CDB7DEB7C155D10963
:100E70000FB6F894DEBF0FBECDBF9E01275A3F4F7D
:100E800069964EAD5FAD699761E570E0CE01019660
:100E90000E94290FBE016F5F7F4F67968FAD6797E6
:100EA0000E941A07CF5ADF4F0FB6F894DEBF0FBE6D
:100EB000CDBFDF91CF910895CF93DF93CDB7DEB74C
:100EC000C155D1090FB6F894DEBF0FBECDBF9E014C
:100ED000275A3F4F69964EAD5FAD699761E570E067
:100EE000CE0101960E94290FBE016F5F7F4F67966A
:100EF0008FAD67970E948206CF5ADF4F0FB6F894E6
:100F0000DEBF0FBECDBFDF91CF9108958091C006A7
:100F100090E02091C106821B910908952091C1069D
:100F20008091C006281750F4E22FF0E0EE53F94FFD
:100F3000808190E02F5F2093C10608958FEF9FEF8F
:100F40000895E091C1068091C006E81730F4F0E002
:100F5000EE53F94F808190E008958FEF9FEF089551
:100F60000895CF92DF92EF92FF920F931F93CF934A
:100F7000DF937C01CB018A0120919C06222389F01A
:100F8000EB016B01C40ED51ECC15DD0569F069912E
:100F9000D701ED91FC910190F081E02DC7010995F9
:100FA000F3CF642F0E941209C801DF91CF911F91E6
:100FB0000F91FF90EF90DF90CF900895CF93DF9344
:100FC0001F92CDB7DEB7698320919C062223D1F012
:100FD00020919D06203240F021E030E0FC01338377
:100FE000228380E090E015C080919E06E82FF0E01B
:100FF000E156F94F998190838F5F80939E0680938D
:101000009D0605C061E0CE0101960E94120981E0B3
:1010100090E00F90DF91CF910895FC01138212822E
:1010200048EE53E060E070E0448355836683778345
:101030008CE695E09183808308951092C10610920A
:10104000C00610929E0610929D060C945D08862F95
:10105000413208F040E262EC76E00E947B08109298
:10106000C1068093C006089521E00C94270881E012
:1010700080939C066093BF0610929E0610929D0678
:1010800008950C9437080F93062F21E040919D0698
:101090006FE976E08091BF060E94BF0810929E061D
:1010A00010929D0610929C060F91089561E00C9499
:1010B000430880E996E00C940D0810924F0781E0F8
:1010C00080934D0710924C0761E082E10E94AF0BC4
:1010D00061E083E10E94AF0BE9EBF0E080818E7F5D
:1010E000808380818D7F808388E48093B80085E44D
:1010F0008093BC000895413208F03FC090914F07A3
:101100009111FCCF91E090934F0720934D072FEF63
:101110002093E20610922707240F2093260790932E
:101120004E0790914E07880F892B80934E07809130
:101130004C07813041F410924C0780914E07809308
:10114000BB0085EC01C085EE8093BC0080914F0709
:101150008130E1F380912707841710F4409127072D
:1011600028E237E0FB01D9018A2F821B841718F48B
:101170008D918193F9CF842F089580E008950F9386
:10118000413208F046C090914F079111FCCF92E098
:1011900090934F0700934D079FEF9093E2061092B4
:1011A000270740932607FB0168E277E0DB019A2FCF
:1011B000961B941718F491919D93F9CF10924E07B6
:1011C00090914E07880F892B80934E0780914C0792
:1011D000813041F410924C0780914E078093BB0000
:1011E00085EC01C085EE8093BC00222321F0809124
:1011F0004F078230E1F38091E2068F3F61F08091EA
:10120000E206803251F08091E206803341F483E0BF
:1012100007C081E005C080E003C082E001C084E037
:101220000F910895613298F420914F07243089F48A
:1012300060930407FC0186E097E0DC012A2F281B5D
:10124000261718F421912D93F9CF80E0089581E0BD
:10125000089582E0089585ED8093BC008091BC00E4
:1012600084FDFCCF10924F07089585EC8093BC005D
:1012700010924F0708951F920F920FB60F921124EC
:101280002F933F934F935F936F937F938F939F938E
:10129000AF93BF93EF93FF938091B900887F80361F
:1012A00009F49CC068F5883209F45BC090F4803181
:1012B00009F454C038F4882309F4F5C0883009F4DF
:1012C0004DC0F5C0883109F44CC0803209F45DC0CE
:1012D000EEC0803409F468C048F4803309F455C086
:1012E000883309F0E4C08093E206A8C0803509F491
:1012F0004FC0883509F45DC0883409F0D8C0D5C026
:10130000883909F4C6C0A8F4883709F467C038F4EE
:10131000883609F463C0803709F460C0C8C08838D3
:1013200009F4B7C0803909F45FC0803809F0BFC044
:101330005BC0803B09F485C038F4803A09F466C08C
:10134000883A09F47EC0B3C0803C09F4A6C0883C4A
:1013500009F4A3C0883B09F489C0A9C080914E0755
:1013600010C09091270780912607981770F5E0919B
:10137000270781E08E0F80932707F0E0E85DF84FA4
:1013800080818093BB0085EC85C08093E2068DC090
:10139000E091270781E08E0F809327078091BB00A3
:1013A000F0E0E85DF84F8083909127078091260751
:1013B0006DC0E091270781E08E0F80932707809111
:1013C000BB00F0E0E85DF84F808380914D0781110C
:1013D0006CC081E080934C0784EA60C083E0809316
:1013E0004F071092E306CFCF8091E306803208F0DA
:1013F00050C0E091E30681E08E0F8093E306809178
:10140000BB00F0E0EC51F94F8083BDCF8091E30643
:10141000803230F4E091E306F0E0EC51F94F1082B5
:101420000E942B096091E30670E0E0914807F0917B
:10143000490784EE96E009951092E3060E9435096B
:1014400036C084E080934F0710920507109204077E
:10145000E0914A07F0914B070995809104078111AB
:1014600005C081E08093040710920607E09105070C
:1014700081E08E0F80930507F0E0EA5FF84F8081EE
:101480008093BB009091050780910407981708F49A
:101490007ACF85E88093BC000AC085EC8093BC00BD
:1014A00010924F0704C01092E2060E942B09FF9190
:1014B000EF91BF91AF919F918F917F916F915F91CC
:1014C0004F913F912F910F900FBE0F901F90189545
:1014D0001F920F920FB60F9211242F933F938F9369
:1014E0009F93AF93BF938091510790915207A09122
:1014F0005307B09154073091500723E0230F2D3745
:1015000020F40196A11DB11D05C026E8230F029607
:10151000A11DB11D2093500780935107909352074E
:10152000A0935307B09354078091550790915607A5
:10153000A0915707B09158070196A11DB11D809346
:10154000550790935607A0935707B0935807BF913C
:10155000AF919F918F913F912F910F900FBE0F9060
:101560001F9018952FB7F89460915107709152070A
:1015700080915307909154072FBF08953FB7F89477
:101580008091550790915607A0915707B091580741
:1015900026B5A89B05C02F3F19F00196A11DB11DCE
:1015A0003FBF6627782F892F9A2F620F711D811DEB
:1015B000911D42E0660F771F881F991F4A95D1F74A
:1015C0000895CF92DF92EF92FF92CF93DF936B015A
:1015D0007C010E94BE0AEB01C114D104E104F104B4
:1015E00079F00E94BE0A6C1B7D0B683E7340A0F32D
:1015F00081E0C81AD108E108F108C851DC4FECCFEE
:10160000DF91CF91FF90EF90DF90CF9008950197F9
:10161000009739F0880F991F880F991F029701973B
:10162000F1F70895789484B5826084BD84B58160B3
:1016300084BD85B5826085BD85B5816085BDEEE6DA
:10164000F0E0808181608083E1E8F0E010828081B9
:1016500082608083808181608083E0E8F0E0808127
:1016600081608083E1EBF0E0808184608083E0EB47
:10167000F0E0808181608083EAE7F0E0808184602F
:10168000808380818260808380818160808380818B
:10169000806880831092C1000895833081F028F41F
:1016A000813099F08230A1F008958630A9F087301A
:1016B000B9F08430D1F4809180008F7D03C0809197
:1016C00080008F7780938000089584B58F7702C063
:1016D00084B58F7D84BD08958091B0008F7703C05D
:1016E0008091B0008F7D8093B0000895CF93DF93F9
:1016F00090E0FC01E458FF4F2491FC01E057FF4FBC
:101700008491882349F190E0880F991FFC01E255EC
:10171000FF4FA591B4918C559F4FFC01C591D49179
:101720009FB7611108C0F8948C91209582238C9307
:10173000888182230AC0623051F4F8948C91322F50
:10174000309583238C938881822B888304C0F894FE
:101750008C91822B8C939FBFDF91CF9108950F9333
:101760001F93CF93DF931F92CDB7DEB7282F30E0C2
:10177000F901E859FF4F8491F901E458FF4F1491A2
:10178000F901E057FF4F04910023C9F0882321F0AD
:1017900069830E944D0B6981E02FF0E0EE0FFF1F7F
:1017A000EC55FF4FA591B4919FB7F8948C916111BE
:1017B00003C01095812301C0812B8C939FBF0F9094
:1017C000DF91CF911F910F9108951F93CF93DF93D6
:1017D000182FEB0161E00E94760B209711F460E076
:1017E00004C0CF3FD10539F461E0812FDF91CF9163
:1017F0001F910C94AF0BE12FF0E0E859FF4FE491FB
:10180000E330F9F048F4E130B9F0E230A1F584B505
:10181000806284BDC8BD34C0E630E9F0E73019F11C
:10182000E43049F580918000806280938000D093FD
:101830008B00C0938A0024C084B5806884BDC7BD76
:101840001FC080918000806880938000D0938900C1
:10185000C093880015C08091B00080688093B0006C
:10186000C093B3000DC08091B00080628093B0003F
:10187000C093B40005C0C038D1050CF0B5CFAFCFD0
:10188000DF91CF911F9108950E94120B0E94880052
:10189000C3E6DDE00E94C3002097E1F30E94630DE0
:1018A000F9CFCF92DF92EF92FF920F931F93CF93D6
:1018B000DF936C017A01EB01E60EF71E00E010E009
:1018C000CE15DF0561F06991D601ED91FC91019093
:1018D000F081E02DC6010995080F191FF1CFC8014D
:1018E000DF91CF911F910F91FF90EF90DF90CF90FC
:1018F00008956115710581F0DB010D900020E9F775
:10190000AD0141505109461B570BDC01ED91FC9193
:101910000280F381E02D099480E090E008950C941A
:10192000790CFC0124853585F901E05CFF4F80814D
:101930009181F901EE5BFF4F20813181821B930B76
:101940008F7399270895FC0184859585FC01E05CDF
:10195000FF4F40815181FC01EE5BFF4F20813181BF
:101960004217530741F00190F081E02DE80FF91F75
:10197000808190E008958FEF9FEF0895FC018485AA
:101980009585FC01E05CFF4F40815181FC01EE5BDD
:10199000FF4F208131814217530779F0A081B18137
:1019A000A80FB91F8C91208131812F5F3F4F2F737A
:1019B00033273183208390E008958FEF9FEF0895C0
:1019C000FC0181A1882329F0A489B5898C9186FF27
:1019D000FBCF11A20895CF93DF93FC0126853785B5
:1019E000D901A05CBF4F8D919C91119701968F7387
:1019F0009927E901CE5BDF4F48815981841795070C
:101A0000D9F30D90BC91A02DA20FB31F6C93A685A6
:101A1000B785A05CBF4F11969C938E93A689B7891A
:101A20002C9181E090E0078C02C0880F991F0A94E6
:101A3000E2F7282B2C9381E081A30488F589E02D1F
:101A400080818064808381E090E0DF91CF91089570
:101A500008951F920F920FB60F9211242F933F9368
:101A60004F938F939F93EF93FF938091C00082FDDC
:101A70001CC04091C6008091FF079091000801961C
:101A80008F739927209101083091020882179307DC
:101A900071F0E091FF07F0910008E154F84F4083A6
:101AA000909300088093FF0702C08091C600FF91C9
:101AB000EF919F918F914F913F912F910F900FBE7A
:101AC0000F901F90189589E597E00E94910C892B43
:101AD00011F00C94280D08951F920F920FB60F92DB
:101AE00011242F933F938F939F93EF93FF93209114
:101AF000BB073091BC078091BD079091BE072817A6
:101B0000390731F48091C1008F7D8093C10014C0EA
:101B1000E091BD07F091BE07E558F84F2081809114
:101B2000BD079091BE0701968F7399279093BE07CA
:101B30008093BD072093C600FF91EF919F918F91F5
:101B40003F912F910F900FBE0F901F901895CF923D
:101B5000DF92EF92FF92CF93DF93EC016A017B015A
:101B6000411581EE580761057105F9F0EC89FD8991
:101B700081E090E008A002C0880F991F0A94E2F764
:101B8000808360E079E08DE390E0A70196010E94F8
:101B90007E0E2150310941095109569547953795D7
:101BA0002795211580E1380798F0EC89FD8910828E
:101BB00060E874E88EE190E0A70196010E947E0E35
:101BC0002150310941095109569547953795279577
:101BD000E889F9893083EA89FB89208319A2EE8993
:101BE000FF89408181E090E09C010C8C02C0220FB3
:101BF000331F0A94E2F7422B4083EE89FF8940812C
:101C00009C010D8C02C0220F331F0A94E2F7422B75
:101C10004083EE89FF8940819C010E8C02C0220F17
:101C2000331F0A94E2F7422B4083EE89FF8920811B
:101C30000F8C02C0880F991F0A94E2F780958223C7
:101C40008083DF91CF91FF90EF90DF90CF90089548
:101C500010925C0710925B0788EE93E0A0E0B0E082
:101C600080935D0790935E07A0935F07B093600732
:101C70008CE795E090935A07809359078FEB97E094
:101C800090936607809365078BE797E090936807CA
:101C90008093670785EC90E090936A0780936907CB
:101CA00084EC90E090936C0780936B0780EC90E05D
:101CB00090936E0780936D0781EC90E0909370078E
:101CC00080936F0782EC90E0909372078093710786
:101CD00086EC90E0909374078093730784E0809380
:101CE000750783E08093760787E08093770785E028
:101CF0008093780781E0809379070895A1E21A2EF6
:101D0000AA1BBB1BFD010DC0AA1FBB1FEE1FFF1F9F
:101D1000A217B307E407F50720F0A21BB30BE40BEF
:101D2000F50B661F771F881F991F1A9469F7609536
:101D30007095809590959B01AC01BD01CF010895F0
:101D4000052E97FB1EF400940E94B70E57FD07D096
:101D50000E947E0E07FC03D04EF40C94B70E5095F3
:101D60004095309521953F4F4F4F5F4F0895909587
:101D70008095709561957F4F8F4F9F4F0895EE0F1F
:101D8000FF1F0590F491E02D0994FB01DC010D90FB
:101D90000020E9F7119701900D920020E1F70895D6
:101DA000FB01DC0101900D920020E1F70895AEE007
:101DB000B0E0EDEDFEE00C94DB110D891E898F89FA
:101DC000988D26E02C831A83098397FF02C080E058
:101DD00090E801979E838D83AE01455E5F4F698DCC
:101DE0007A8DCE0101960E94550F4D815E8157FD7F
:101DF0000AC02F813885421753070CF49A01F80165
:101E0000E20FF31F10822E96E4E00C94F711AEE07F
:101E1000B0E0EDE0FFE00C94DB110D891E8986E057
:101E20008C831A8309838FEF9FE79E838D83AE0196
:101E3000475E5F4F6F89788DCE0101960E94550FE6
:101E4000EF81F885E00FF11F10822E96E4E00C94EC
:101E5000F711AEE0B0E0EFE2FFE00C94DB118C0193
:101E6000CA0146E04C831A83098377FF02C060E011
:101E700070E8615071097E836D83A901BC01CE01B8
:101E800001960E94550F4D815E8157FD0AC02F813A
:101E90003885421753070CF49A01F801E20FF31F3B
:101EA00010822E96E4E00C94F711ACE0B0E0EBE584
:101EB000FFE00C94CD117C016B018A01FC011782BB
:101EC0001682838181FFBDC1CE0101964C01F701CD
:101ED0009381F60193FD859193FF81916F01882392
:101EE00009F4ABC1853239F493FD859193FF81915B
:101EF0006F01853229F4B70190E00E943D11E7CFD0
:101F0000512C312C20E02032A0F48B3269F030F4D7
:101F1000803259F0833269F420612CC08D3239F05F
:101F2000803339F4216026C02260246023C02860F9
:101F300021C027FD27C030ED380F3A3078F426FF56
:101F400006C0FAE05F9E300D1124532E13C08AE0C4
:101F5000389E300D1124332E20620CC08E3221F4B5
:101F600026FD6BC1206406C08C3611F4206802C0C7
:101F7000883641F4F60193FD859193FF81916F01BD
:101F80008111C1CF982F9F7D9554933028F40C5F19
:101F90001F4FFFE3F9830DC0833631F0833771F0B3
:101FA000833509F05BC022C0F801808189830E5F10
:101FB0001F4F44244394512C540115C03801F2E0C2
:101FC0006F0E711CF801A080B18026FF03C0652D43
:101FD00070E002C06FEF7FEFC5012C870E943211C5
:101FE0002C0183012C852F77222E17C03801F2E0B7
:101FF0006F0E711CF801A080B18026FF03C0652D13
:1020000070E002C06FEF7FEFC5012C870E9427119F
:102010002C012C852068222E830123FC1BC0832DDC
:1020200090E048165906B0F4B70180E290E00E94B3
:102030003D113A94F4CFF50127FC859127FE81915B
:102040005F01B70190E00E943D1131103A94F1E038
:102050004F1A51084114510471F7E5C0843611F04C
:10206000893639F5F80127FF07C0608171818281C7
:1020700093810C5F1F4F08C060817181882777FDB5
:102080008095982F0E5F1F4F2F76B22E97FF09C0B5
:1020900090958095709561957F4F8F4F9F4F2068E9
:1020A000B22E2AE030E0A4010E946F11A82EA818D9
:1020B00044C0853729F42F7EB22E2AE030E025C0B7
:1020C000F22FF97FBF2E8F36C1F018F4883579F0E2
:1020D000B4C0803719F0883721F0AFC02F2F2061AE
:1020E000B22EB4FE0DC08B2D8460B82E09C024FF23
:1020F0000AC09F2F9660B92E06C028E030E005C0C8
:1021000020E130E002C020E132E0F801B7FE07C074
:1021100060817181828193810C5F1F4F06C0608155
:10212000718180E090E00E5F1F4FA4010E946F114B
:10213000A82EA818FB2DFF77BF2EB6FE0BC02B2DA7
:102140002E7FA51450F4B4FE0AC0B2FC08C02B2D9B
:102150002E7E05C07A2C2B2D03C07A2C01C0752C45
:1021600024FF0DC0FE01EA0DF11D8081803311F4C2
:10217000297E09C022FF06C07394739404C0822F85
:10218000867809F0739423FD13C020FF06C05A2CF3
:10219000731418F4530C5718732C731468F4B701A4
:1021A00080E290E02C870E943D1173942C85F5CF3E
:1021B000731410F4371801C0312C24FF12C0B7017A
:1021C00080E390E02C870E943D112C8522FF17C0F0
:1021D00021FF03C088E590E002C088E790E0B701E6
:1021E0000CC0822F867859F021FD02C080E201C028
:1021F0008BE227FD8DE2B70190E00E943D11A5140E
:1022000038F4B70180E390E00E943D115A94F7CF73
:10221000AA94F401EA0DF11D8081B70190E00E94BB
:102220003D11A110F5CF332009F451CEB70180E262
:1022300090E00E943D113A94F6CFF7018681978194
:1022400002C08FEF9FEF2C96E2E10C94E911FC01A4
:102250000590615070400110D8F7809590958E0FD1
:102260009F1F0895FC016150704001900110D8F744
:10227000809590958E0F9F1F08950F931F93CF9376
:10228000DF93182F092FEB018B8181FD03C08FEFA6
:102290009FEF20C082FF10C04E815F812C813D8165
:1022A000421753077CF4E881F9819F012F5F3F4F6C
:1022B00039832883108306C0E885F985812F099525
:1022C000892B29F72E813F812F5F3F4F3F832E833C
:1022D000812F902FDF91CF911F910F910895FA01D7
:1022E000AA27283051F1203181F1E8946F936E7F55
:1022F0006E5F7F4F8F4F9F4FAF4FB1E03ED0B4E046
:102300003CD0670F781F891F9A1FA11D680F791F86
:102310008A1F911DA11D6A0F711D811D911DA11D97
:1023200020D009F468943F912AE0269F11243019A7
:10233000305D3193DEF6CF010895462F4770405D42
:102340004193B3E00FD0C9F7F6CF462F4F70405DF1
:102350004A3318F0495D31FD4052419302D0A9F74C
:10236000EACFB4E0A6959795879577956795BA9546
:10237000C9F700976105710508959B01AC010A2E0C
:1023800006945795479537952795BA95C9F7620FE3
:10239000731F841F951FA01D08952F923F924F9287
:1023A0005F926F927F928F929F92AF92BF92CF92E5
:1023B000DF92EF92FF920F931F93CF93DF93CDB7EE
:1023C000DEB7CA1BDB0B0FB6F894DEBF0FBECDBF66
:1023D00009942A88398848885F846E847D848C8437
:1023E0009B84AA84B984C884DF80EE80FD800C8140
:1023F0001B81AA81B981CE0FD11D0FB6F894DEBF23
:0C2400000FBECDBFED010895F894FFCF92
:10240C000000030820001B010F0177010000019E52
:10241C0001000000005701FD0000006B03000000EC
:10242C00006F0158020000B562010700000819B5E1
:10243C006206242400FFFF060300000000102700A2
:10244C00000500FA00FA0064002C010000000000F6
:10245C0000000000000000000016DCB5620600144D
:10246C0000000000008400000000000000010001DA
:10247C000000000000A096DF03FFFFFFFF0E035DCE
:10248C000300007D060600000043616C6C696E67FA
:10249C0020736574757020666F72202573006361FC
:1024AC006D6572610053657474696E6720494F20C5
:1024BC0070726F746F636F6C732E004572726F72F3
:1024CC002073656E64696E67204346472D505254E5
:1024DC002E004177616974696E6720636F6E66695F
:1024EC00726D6174696F6E2E004572726F723A2054
:1024FC006E6F20636F6E6669726D6174696F6E20AA
:10250C00726563656976656420666F722043464721
:10251C002D5052542E0053657474696E6720666C8E
:10252C0069676874206D6F646520283167292E00F7
:10253C004572726F722073656E64696E67204346D4
:10254C00472D4E41562E004572726F723A206E6FB7
:10255C0020636F6E6669726D6174696F6E2072654F
:10256C0063656976656420666F72204346472D4E1D
:10257C0041562E0047505320446174613A0054690F
:10258C006D653A20253032753A253032753A253052
:10259C003275004C61743A20256C692C204C6F6E9E
:1025AC003A20256C6900416C7469747564653A2035
:1025BC00256C69004E756D626572206F66207361C3
:1025CC0074656C6C6974657320757365643A202549
:1025DC00750054797065206F66206C6F636B3A20C0
:1025EC0025750A002A2A2A2A2A4C6F636B206163FC
:1025FC007175697265642A2A2A2A2A002A2A2A2ACB
:10260C002A4C6F636B206C6F73742A2A2A2A2A0057
:10261C0052657175657374696E67204E41562D5005
:10262C0056542E004572726F722073656E64696E1B
:10263C0067204E41562D505654004465636F6469B3
:10264C006E67207061636B65742074797065205BB4
:10265C00253034785D004E6F742061204E41562D2C
:10266C00505654207061636B657400475053005290
:10267C005454592073657475700024244841424C9D
:10268C004545424C45452C3030303133382C3134B3
:10269C003A30303A35302C2B35312E3438323538FF
:1026AC00303637302C2D3030332E313633363636FB
:1026BC003136302C3030303030342C2B32302C2D15
:1026CC0032302C30352C30313936002A2530345804
:1026DC000A0052545459207478205B25735D0072A3
:1026EC007474790044726F7070696E67205542582B
:1026FC00207061636B65740054696D656F7574202F
:10270C006C6F6F6B696E6720666F72205542582034
:10271C0073796E6300556E657870656374656420BB
:10272C0073796E6320627974652030782530327845
:10273C0000554258207061636B6574206F6620747D
:10274C00797065205B253034785D20746F6F206C58
:10275C006F6E6720282575290055425820706163DB
:10276C006B6574206661696C656420636865636B76
:10277C0073756D205B25303278253032785D20768C
:10278C0073205B25303278253032785D00526561DC
:10279C0064696E672041434B20726573706F6E7372
:1027AC00650054696D6564206F7574207265616491
:1027BC00696E67205542582041434B00202530322A
:1027CC0078005375636365737366756C6C792072EE
:1027DC00656164205542582041434B004572726F2D
:1027EC007220696E20576972652E656E6454726131
:1027FC006E736D697373696F6E2061742062756698
:10280C006665723D6D61782E004572726F7220693B
:10281C006E20576972652E77726974652E00457249
:10282C00726F7220696E20576972652E656E6454E2
:10283C0072616E736D697373696F6E2E005375637D
:10284C006365737321000D0A005B25326C752725B7
:10285C0030326C752E2530326C752025635D20006E
:10286C005045576E6C64440000000000DE07B10751
:10287C0086078E07A107B00700000000EB0C510C77
:08288C00910CBE0CA30CE00C42
:00000001FF
